{
  "_format": "hh-sol-artifact-1",
  "contractName": "Data",
  "sourceName": "contracts/Data.sol",
  "abi": [
    {
      "anonymous": false,
      "inputs": [
        {
          "indexed": false,
          "internalType": "string",
          "name": "newData",
          "type": "string"
        }
      ],
      "name": "NewData",
      "type": "event"
    },
    {
      "inputs": [],
      "name": "data",
      "outputs": [
        {
          "internalType": "string",
          "name": "",
          "type": "string"
        }
      ],
      "stateMutability": "view",
      "type": "function"
    },
    {
      "inputs": [
        {
          "internalType": "string",
          "name": "_string",
          "type": "string"
        }
      ],
      "name": "setData",
      "outputs": [],
      "stateMutability": "nonpayable",
      "type": "function"
    }
  ],
  "bytecode": "0x608060405234801561001057600080fd5b506106af806100206000396000f3fe608060405234801561001057600080fd5b50600436106100365760003560e01c806347064d6a1461003b57806373d4a13a14610057575b600080fd5b610055600480360381019061005091906102a7565b610075565b005b61005f6100bf565b60405161006c919061036f565b60405180910390f35b806000908161008491906105a7565b507f5590b1967772c130a40ec38877d03809e869f11db50d99cbba9f17780c32c3ea816040516100b4919061036f565b60405180910390a150565b600080546100cc906103c0565b80601f01602080910402602001604051908101604052809291908181526020018280546100f8906103c0565b80156101455780601f1061011a57610100808354040283529160200191610145565b820191906000526020600020905b81548152906001019060200180831161012857829003601f168201915b505050505081565b6000604051905090565b600080fd5b600080fd5b600080fd5b600080fd5b6000601f19601f8301169050919050565b7f4e487b7100000000000000000000000000000000000000000000000000000000600052604160045260246000fd5b6101b48261016b565b810181811067ffffffffffffffff821117156101d3576101d261017c565b5b80604052505050565b60006101e661014d565b90506101f282826101ab565b919050565b600067ffffffffffffffff8211156102125761021161017c565b5b61021b8261016b565b9050602081019050919050565b82818337600083830152505050565b600061024a610245846101f7565b6101dc565b90508281526020810184848401111561026657610265610166565b5b610271848285610228565b509392505050565b600082601f83011261028e5761028d610161565b5b813561029e848260208601610237565b91505092915050565b6000602082840312156102bd576102bc610157565b5b600082013567ffffffffffffffff8111156102db576102da61015c565b5b6102e784828501610279565b91505092915050565b600081519050919050565b600082825260208201905092915050565b60005b8381101561032a57808201518184015260208101905061030f565b60008484015250505050565b6000610341826102f0565b61034b81856102fb565b935061035b81856020860161030c565b6103648161016b565b840191505092915050565b600060208201905081810360008301526103898184610336565b905092915050565b7f4e487b7100000000000000000000000000000000000000000000000000000000600052602260045260246000fd5b600060028204905060018216806103d857607f821691505b6020821081036103eb576103ea610391565b5b50919050565b60008190508160005260206000209050919050565b60006020601f8301049050919050565b600082821b905092915050565b6000600883026104537fffffffffffffffffffffffffffffffffffffffffffffffffffffffffffffffff82610416565b61045d8683610416565b95508019841693508086168417925050509392505050565b6000819050919050565b6000819050919050565b60006104a461049f61049a84610475565b61047f565b610475565b9050919050565b6000819050919050565b6104be83610489565b6104d26104ca826104ab565b848454610423565b825550505050565b600090565b6104e76104da565b6104f28184846104b5565b505050565b5b818110156105165761050b6000826104df565b6001810190506104f8565b5050565b601f82111561055b5761052c816103f1565b61053584610406565b81016020851015610544578190505b61055861055085610406565b8301826104f7565b50505b505050565b600082821c905092915050565b600061057e60001984600802610560565b1980831691505092915050565b6000610597838361056d565b9150826002028217905092915050565b6105b0826102f0565b67ffffffffffffffff8111156105c9576105c861017c565b5b6105d382546103c0565b6105de82828561051a565b600060209050601f83116001811461061157600084156105ff578287015190505b610609858261058b565b865550610671565b601f19841661061f866103f1565b60005b8281101561064757848901518255600182019150602085019450602081019050610622565b868310156106645784890151610660601f89168261056d565b8355505b6001600288020188555050505b50505050505056fea2646970667358221220fb66ed629a70643b88c8f0204a39408d6d7882df34cfab60c925adcf3fb82b1e64736f6c63430008100033",
  "linkReferences": {},
  "deployedLinkReferences": {}
}